{
  "contractName": "Auction",
  "abi": [
    {
      "inputs": [],
      "payable": false,
      "stateMutability": "nonpayable",
      "type": "constructor"
    },
    {
      "constant": true,
      "inputs": [],
      "name": "auctionEndFlag",
      "outputs": [
        {
          "internalType": "bool",
          "name": "",
          "type": "bool"
        }
      ],
      "payable": false,
      "stateMutability": "view",
      "type": "function"
    },
    {
      "constant": true,
      "inputs": [],
      "name": "beneficiary",
      "outputs": [
        {
          "internalType": "address payable",
          "name": "",
          "type": "address"
        }
      ],
      "payable": false,
      "stateMutability": "view",
      "type": "function"
    },
    {
      "constant": true,
      "inputs": [],
      "name": "highestBid",
      "outputs": [
        {
          "internalType": "uint256",
          "name": "",
          "type": "uint256"
        }
      ],
      "payable": false,
      "stateMutability": "view",
      "type": "function"
    },
    {
      "constant": true,
      "inputs": [],
      "name": "highestBidder",
      "outputs": [
        {
          "internalType": "address",
          "name": "",
          "type": "address"
        }
      ],
      "payable": false,
      "stateMutability": "view",
      "type": "function"
    },
    {
      "constant": false,
      "inputs": [],
      "name": "bid",
      "outputs": [],
      "payable": true,
      "stateMutability": "payable",
      "type": "function"
    },
    {
      "constant": false,
      "inputs": [],
      "name": "withdraw",
      "outputs": [
        {
          "internalType": "bool",
          "name": "",
          "type": "bool"
        }
      ],
      "payable": false,
      "stateMutability": "nonpayable",
      "type": "function"
    },
    {
      "constant": false,
      "inputs": [],
      "name": "auctionEnd",
      "outputs": [],
      "payable": false,
      "stateMutability": "nonpayable",
      "type": "function"
    }
  ],
  "bytecode": "0x608060405234801561001057600080fd5b50336000806101000a81548173ffffffffffffffffffffffffffffffffffffffff021916908373ffffffffffffffffffffffffffffffffffffffff1602179055506000600360006101000a81548160ff02191690831515021790555061093c8061007b6000396000f3fe6080604052600436106100705760003560e01c80633ccfd60b1161004e5780633ccfd60b146100ed5780634a5a82121461011c57806391f901571461014b578063d57bde79146101a257610070565b80631998aeef146100755780632a24f46c1461007f57806338af3eed14610096575b600080fd5b61007d6101cd565b005b34801561008b57600080fd5b5061009461040e565b005b3480156100a257600080fd5b506100ab610636565b604051808273ffffffffffffffffffffffffffffffffffffffff1673ffffffffffffffffffffffffffffffffffffffff16815260200191505060405180910390f35b3480156100f957600080fd5b5061010261065b565b604051808215151515815260200191505060405180910390f35b34801561012857600080fd5b50610131610822565b604051808215151515815260200191505060405180910390f35b34801561015757600080fd5b50610160610835565b604051808273ffffffffffffffffffffffffffffffffffffffff1673ffffffffffffffffffffffffffffffffffffffff16815260200191505060405180910390f35b3480156101ae57600080fd5b506101b761085b565b6040518082815260200191505060405180910390f35b600360009054906101000a900460ff1615610250576040517f08c379a000000000000000000000000000000000000000000000000000000000815260040180806020018281038252601e8152602001807f43616e6e6f74204269642c2041756374696f6e2068617320656e64656421000081525060200191505060405180910390fd5b60025434116102aa576040517f08c379a00000000000000000000000000000000000000000000000000000000081526004018080602001828103825260288152602001806108b06028913960400191505060405180910390fd5b600160009054906101000a900473ffffffffffffffffffffffffffffffffffffffff1673ffffffffffffffffffffffffffffffffffffffff163373ffffffffffffffffffffffffffffffffffffffff161415610351576040517f08c379a000000000000000000000000000000000000000000000000000000000815260040180806020018281038252602c815260200180610862602c913960400191505060405180910390fd5b6000600254146103c45760025460046000600160009054906101000a900473ffffffffffffffffffffffffffffffffffffffff1673ffffffffffffffffffffffffffffffffffffffff1673ffffffffffffffffffffffffffffffffffffffff168152602001908152602001600020819055505b33600160006101000a81548173ffffffffffffffffffffffffffffffffffffffff021916908373ffffffffffffffffffffffffffffffffffffffff16021790555034600281905550565b6000809054906101000a900473ffffffffffffffffffffffffffffffffffffffff1673ffffffffffffffffffffffffffffffffffffffff163373ffffffffffffffffffffffffffffffffffffffff16146104b3576040517f08c379a00000000000000000000000000000000000000000000000000000000081526004018080602001828103825260308152602001806108d86030913960400191505060405180910390fd5b600360009054906101000a900460ff1615610536576040517f08c379a000000000000000000000000000000000000000000000000000000000815260040180806020018281038252601a8152602001807f41756374696f6e2068617320656e64656420616c72656164792100000000000081525060200191505060405180910390fd5b6001600360006101000a81548160ff02191690831515021790555060008060009054906101000a900473ffffffffffffffffffffffffffffffffffffffff1673ffffffffffffffffffffffffffffffffffffffff1660025460405180600001905060006040518083038185875af1925050503d80600081146105d4576040519150601f19603f3d011682016040523d82523d6000602084013e6105d9565b606091505b5050905080610633576040517f08c379a000000000000000000000000000000000000000000000000000000000815260040180806020018281038252602281526020018061088e6022913960400191505060405180910390fd5b50565b6000809054906101000a900473ffffffffffffffffffffffffffffffffffffffff1681565b600080600460003373ffffffffffffffffffffffffffffffffffffffff1673ffffffffffffffffffffffffffffffffffffffff16815260200190815260200160002054905060008111610716576040517f08c379a000000000000000000000000000000000000000000000000000000000815260040180806020018281038252601e8152602001807f596f752068617665206e6f20616d6f756e7420746f207769746864726177000081525060200191505060405180910390fd5b6000600460003373ffffffffffffffffffffffffffffffffffffffff1673ffffffffffffffffffffffffffffffffffffffff1681526020019081526020016000208190555060003373ffffffffffffffffffffffffffffffffffffffff168260405180600001905060006040518083038185875af1925050503d80600081146107bb576040519150601f19603f3d011682016040523d82523d6000602084013e6107c0565b606091505b50509050806108185781600460003373ffffffffffffffffffffffffffffffffffffffff1673ffffffffffffffffffffffffffffffffffffffff1681526020019081526020016000208190555060009250505061081f565b6001925050505b90565b600360009054906101000a900460ff1681565b600160009054906101000a900473ffffffffffffffffffffffffffffffffffffffff1681565b6002548156fe43616e6e6f74204269642c20596f7520616c726561647920686176652074686520686967686573742062696441756374696f6e20656e64206661696c65642c20506c656173652072652d7472792143616e6e6f742070726f636565642c20506c65617365206d616b652061206869676865722062696443616e6e6f7420456e642c204f6e6c792062656e65666963696172792063616e20656e64207468652061756374696f6ea265627a7a72315820e351ea589f8e7d0b0b671be9af2a5de78514a0285966ef5bf89c7e9348f0b47864736f6c63430005100032",
  "source": "pragma solidity ^0.5.0;\n\ncontract Auction {\n    address payable public beneficiary;\n\n    // Current state of the auction. You can create more variables if needed\n    address public highestBidder;\n    uint public highestBid;\n    bool public auctionEndFlag;\n\n    // Allowed withdrawals of previous bids\n    mapping(address => uint) pendingReturns;\n\n    // Constructor\n    constructor() public {\n        beneficiary = msg.sender;\n        auctionEndFlag = false;\n    }\n\n    /// Bid on the auction with the value sent\n    /// together with this transaction.\n    /// The value will only be refunded if the\n    /// auction is not won.\n    function bid() public payable {\n\n\n        // TODO If the bid is not higher than highestBid, send the\n        // money back. Use \"require\"\n        \n        // TODO update state\n\n        // TODO store the previously highest bid in pendingReturns. That bidder\n        // will need to trigger withdraw() to get the money back.\n        // For example, A bids 5 ETH. Then, B bids 6 ETH and becomes the highest bidder. \n        // Store A and 5 ETH in pendingReturns. \n        // A will need to trigger withdraw() later to get that 5 ETH back.\n\n        // Sending back the money by simply using\n        // highestBidder.send(highestBid) is a security risk\n        // because it could execute an untrusted contract.\n        // It is always safer to let the recipients\n        // withdraw their money themselves.\n        require(!auctionEndFlag,\"Cannot Bid, Auction has ended!\");\n        require(msg.value > highestBid, \"Cannot proceed, Please make a higher bid\");\n        require(msg.sender!=highestBidder,\"Cannot Bid, You already have the highest bid\");\n\n        if(highestBid!=0)\n        {\n            pendingReturns[highestBidder] = highestBid;     //Store the amount to be returned to current highest bidder\n        }\n        \n        \n        highestBidder = msg.sender;     //Update the highestbid and highestbidder\n        highestBid = msg.value; \n         \n\n\n        \n    }\n\n    /// Withdraw a bid that was overbid.\n    function withdraw() public returns (bool) {\n\n        // TODO send back the amount in pendingReturns to the sender. Try to avoid the reentrancy attack. Return false if there is an error when sending\n         uint amount = pendingReturns[msg.sender];\n         require(amount>0,\"You have no amount to withdraw\");\n         pendingReturns[msg.sender] = 0; \n          \n        (bool sent,) = msg.sender.call.value(amount)(\"\");\n\n         if(!sent){\n            pendingReturns[msg.sender] = amount; //put back the amount to the pending returns if withdraw is failed.\n            return false;\n            }\n         return true;                           //withdraw successful\n         \n\n    }\n\n    /// End the auction and send the highest bid\n    /// to the beneficiary.\n    function auctionEnd() public {\n        // TODO make sure that only the beneficiary can trigger this function. Use \"require\"\n        require(msg.sender== beneficiary,\"Cannot End, Only beneficiary can end the auction\");\n        // TODO send money to the beneficiary account. Make sure that it can't call this auctionEnd() multiple times to drain money\n        require(!auctionEndFlag,\"Auction has ended already!\");\n        \n        auctionEndFlag = true;  // auctionEndFlag should be set to true before the transfer to prevent re-entrancy attack\n\n        (bool sent, ) = beneficiary.call.value(highestBid)(\"\");\n\n        if(!sent)\n        {\n            revert(\"Auction end failed, Please re-try!\"); //reverts all the state changes in the current call\n        }\n\n        \n            \n\n\n        \n\n    }\n}",
  "sourcePath": "/Users/akhil/Downloads/Blockchain/hw1-source/contracts/Auction.sol",
  "compiler": {
    "name": "solc",
    "version": "0.5.16+commit.9c3226ce.Emscripten.clang"
  },
  "schemaVersion": "3.4.4",
  "updatedAt": "2022-02-11T02:52:15.108Z",
  "networkType": "ethereum",
  "devdoc": {
    "methods": {}
  },
  "userdoc": {
    "methods": {
      "auctionEnd()": {
        "notice": "End the auction and send the highest bid to the beneficiary."
      },
      "bid()": {
        "notice": "Bid on the auction with the value sent together with this transaction. The value will only be refunded if the auction is not won."
      },
      "withdraw()": {
        "notice": "Withdraw a bid that was overbid."
      }
    }
  }
}